:020000040800F2
:1000000000040020010300080303000802030008A5
:1000100002030008020300080203000802030008AC
:10002000020300080203000802030008CD0E0008C6
:10003000020300080203000802030008020300088C
:10004000020300080203000802030008020300087C
:10005000020300080203000802030008020300086C
:10006000020300080203000802030008896E00086A
:10007000C96E00080D6F0008516F0008956F0008E9
:10008000D56F000819700008020300080203000879
:10009000020300080203000802030008020300082C
:1000A000020300080203000802030008020300081C
:1000B0001F440008020300080203000802030008AE
:1000C00002030008020300080203000802030008FC
:1000D00002030008494700085D47000802030008C2
:1000E00002030008020300080203000802030008DC
:1000F0000203000802030008020300085D70000804
:1001000002030008020300080203000802030008BB
:1001100002030008020300080203000802030008AB
:10012000B14B0008F14B0008354C0008794C000831
:10013000BD4C000802030008020300080203000887
:1001400002030008020300080203000869590008BE
:10015000FD4C0008414D0008854D0008992D000810
:10016000020300080203000802030008020300085B
:10017000020300080203000802030008020300084B
:10018000020300080203000802030008020300083B
:10019000020300080203000802030008020300082B
:1001A000020300080203000802030008020300081B
:1001B000020300080203000802030008020300080B
:1001C00002030008020300080203000802030008FB
:1001D00002030008020300080203000802030008EB
:1001E00072B6394880F30888384880F3098838485F
:1001F0004EF60851CEF20001086040F20000CCF249
:1002000000004EF63471CEF200010860BFF34F8F4C
:10021000BFF36F8F40F20000C0F2F0004EF688513D
:10022000CEF200010860BFF34F8FBFF36F8F4FF026
:100230000000E1EE100A4EF63C71CEF200010860BB
:10024000062080F31488BFF36F8F07F056FE02F08C
:1002500019FF4FF055301F491B4A91423CBF41F8EE
:10026000040BFAE71C49194A91423CBF41F8040BC0
:10027000FAE71A491A4A1B4B9A423EBF51F8040B3F
:1002800042F8040BF8E700201749184A91423CBF96
:1002900041F8040BFAE707F03FFE07F034FE144C78
:1002A000144DAC4203DA54F8041B8847F9E701F017
:1002B0004FFF114C114DAC4203DA54F8041B884730
:1002C000F9E707F026BE0000000400200008002027
:1002D000000000080000002000040020D493000863
:1002E000000800204408002048080020D013002007
:1002F000E0010008E0010008E0010008E00100085A
:100300006EE700F000F8FEE72DE9F04F2DED108AC2
:10031000C1F80CD0C3689D46BDEC108ABDE8F08FD3
:10032000002383F311882846A047002002F0C0FB79
:1003300003F0F2FB00DFFEE781F0004102E000BFC6
:1003400083F0004330B54FEA41044FEA430594EA95
:10035000050F08BF90EA020F1FBF54EA000C55EAD0
:10036000020C7FEA645C7FEA655C00F0E2804FEAA1
:100370005454D4EB5555B8BF6D420CDD2C4480EA83
:10038000020281EA030382EA000083EA010180EAB3
:10039000020281EA0303362D88BF30BD11F0004F01
:1003A0004FEA01314FF4801C4CEA113102D0404237
:1003B00061EB410113F0004F4FEA03334CEA133372
:1003C00002D0524263EB430394EA050F00F0A7808A
:1003D000A4F10104D5F1200E0DDB02FA0EFC22FA85
:1003E00005F2801841F1000103FA0EF2801843FA79
:1003F00005F359410EE0A5F120050EF1200E012A6A
:1004000003FA0EFC28BF4CF0020C43FA05F3C018A7
:1004100051EBE37101F0004507D54FF0000EDCF120
:10042000000C7EEB00006EEB0101B1F5801F1BD3C9
:10043000B1F5001F0CD349085FEA30004FEA3C0CCD
:1004400004F101044FEA445212F5800F80F09A80C3
:10045000BCF1004F08BF5FEA500C50F1000041EBC7
:10046000045141EA050130BD5FEA4C0C404141EBCB
:10047000010111F4801FA4F10104E9D191F0000FF2
:1004800004BF01460020B1FA81F308BF2033A3F175
:100490000B03B3F120020CDA0C3208DD02F1140C6C
:1004A000C2F10C0201FA0CF021FA02F10CE002F1A7
:1004B0001402D8BFC2F1200C01FA02F120FA0CFCA0
:1004C000DCBF41EA0C019040E41AA2BF01EB0451E9
:1004D000294330BD6FEA04041F3C1CDA0C340EDCE7
:1004E00004F11404C4F1200220FA04F001FA02F32A
:1004F00040EA030021FA04F345EA030130BDC4F1E8
:100500000C04C4F1200220FA02F001FA04F340EADC
:100510000300294630BD21FA04F0294630BD94F08D
:10052000000F83F4801306BF81F480110134013D74
:100530004EE77FEA645C18BF7FEA655C29D094EAE5
:10054000050F08BF90EA020F05D054EA000C04BF63
:100550001946104630BD91EA030F1EBF002100204E
:1005600030BD5FEA545C05D14000494128BF41F0ED
:10057000004130BD14F580043CBF01F5801130BD51
:1005800001F0004545F0FE4141F470014FF00000DC
:1005900030BD7FEA645C1ABF194610467FEA655C8D
:1005A0001CBF0B46024650EA013406BF52EA03352F
:1005B00091EA030F41F4002130BD00BF90F0000F1D
:1005C00004BF0021704730B54FF4806404F1320459
:1005D0004FF000054FF0000150E700BF90F0000F12
:1005E00004BF0021704730B54FF4806404F1320439
:1005F00010F0004548BF40424FF000013EE700BF09
:1006000042004FEAE2014FEA31014FEA02701FBF98
:1006100012F07F4393F07F4F81F06051704792F06A
:10062000000F14BF93F07F4F704730B54FF46074E4
:1006300001F0004521F0004120E700BF50EA01022F
:1006400008BF704730B54FF000050AE050EA0102DC
:1006500008BF704730B511F0004502D5404261EB4C
:1006600041014FF4806404F132045FEA915C3FF48D
:10067000DCAE4FF003025FEADC0C18BF03325FEA26
:10068000DC0C18BF033202EBDC02C2F1200300FADB
:1006900003FC20FA02F001FA03FE40EA0E0021FA00
:1006A00002F11444C1E600BF70B54FF0FF0C4CF4EA
:1006B000E06C1CEA11541DBF1CEA135594EA0C0FA0
:1006C00095EA0C0F00F0DEF82C4481EA030621EADB
:1006D0004C5123EA4C5350EA013518BF52EA033516
:1006E00041F4801143F4801338D0A0FB02CE4FF0C8
:1006F0000005E1FB02E506F00042E0FB03E54FF0F8
:100700000006E1FB03569CF0000F18BF4EF0010EEF
:10071000A4F1FF04B6F5007F64F5407404D25FEAEB
:100720004E0E6D4146EB060642EAC62141EA55519E
:100730004FEAC52040EA5E504FEACE2EB4F1FD0CE0
:1007400088BFBCF5E06F1ED8BEF1004F08BF5FEA5E
:10075000500E50F1000041EB045170BD06F0004610
:1007600046EA010140EA020081EA0301B4EB5C04BD
:10077000C2BFD4EB0C0541EA045170BD41F48011B5
:100780004FF0000E013C00F3AB8014F1360FDEBFDA
:10079000002001F0004170BDC4F10004203C35DAB6
:1007A0000C341BDC04F11404C4F1200500FA05F339
:1007B00020FA04F001FA05F240EA020001F00042DA
:1007C00021F0004110EBD37021FA04F642EB060150
:1007D0005EEA430E08BF20EAD37070BDC4F10C047A
:1007E000C4F1200500FA04F320FA05F001FA04F23E
:1007F00040EA020001F0004110EBD37041F100012A
:100800005EEA430E08BF20EAD37070BDC4F1200534
:1008100000FA05F24EEA020E20FA04F301FA05F29C
:1008200043EA020321FA04F001F0004121FA04F244
:1008300020EA020000EBD3705EEA430E08BF20EA14
:10084000D37070BD94F0000F0FD101F0004640004E
:1008500041EB010111F4801F08BF013CF7D041EAD0
:10086000060195F0000F18BF704703F000465200D4
:1008700043EB030313F4801F08BF013DF7D043EAA5
:100880000603704794EA0C0F0CEA135518BF95EA5B
:100890000C0F0CD050EA410618BF52EA4306D1D1E2
:1008A00081EA030101F000414FF0000070BD50EA01
:1008B000410606BF1046194652EA430619D094EA8B
:1008C0000C0F02D150EA013613D195EA0C0F05D175
:1008D00052EA03361CBF104619460AD181EA0301C9
:1008E00001F0004141F0FE4141F470014FF0000081
:1008F00070BD41F0FE4141F4780170BD70B54FF01C
:10090000FF0C4CF4E06C1CEA11541DBF1CEA13559B
:1009100094EA0C0F95EA0C0F00F0A7F8A4EB05047D
:1009200081EA030E52EA03354FEA013100F0888074
:100930004FEA03334FF0805545EA131343EA12633D
:100940004FEA022245EA111545EA10654FEA0026F2
:100950000EF000419D4208BF964244F1FD0404F5AB
:10096000407402D25B084FEA3202B61A65EB030507
:100970005B084FEA32024FF480104FF4002CB6EBC4
:10098000020E75EB030E22BFB61A754640EA0C0044
:100990005B084FEA3202B6EB020E75EB030E22BF84
:1009A000B61A754640EA5C005B084FEA3202B6EBC5
:1009B000020E75EB030E22BFB61A754640EA9C0084
:1009C0005B084FEA3202B6EB020E75EB030E22BF54
:1009D000B61A754640EADC0055EA060E18D04FEA12
:1009E000051545EA16754FEA06164FEAC30343EAB2
:1009F00052734FEAC2025FEA1C1CC0D111F4801F7F
:100A00000BD141EA00014FF000004FF0004CB6E777
:100A100011F4801F04BF01430020B4F1FD0C88BF16
:100A2000BCF5E06F3FF6AFAEB5EB030C04BFB6EB21
:100A3000020C5FEA500C50F1000041EB045170BD14
:100A40000EF0004E4EEA113114EB5C04C2BFD4EB41
:100A50000C0541EA045170BD41F480114FF0000EC5
:100A6000013C90E645EA060E8DE60CEA135594EA41
:100A70000C0F08BF95EA0C0F3FF43BAF94EA0C0F44
:100A80000AD150EA01347FF434AF95EA0C0F7FF4B9
:100A900025AF104619462CE795EA0C0F06D152EA0D
:100AA00003353FF4FDAE1046194622E750EA4106F1
:100AB00018BF52EA43067FF4C5AE50EA41047FF402
:100AC0000DAF52EA43057FF4EBAE12E74FEA410265
:100AD00012F5001215D211D56FF47873B3EB625290
:100AE00012D94FEAC12343F0004343EA505311F0B7
:100AF000004F23FA02F018BF404270474FF0000049
:100B0000704750EA013005D111F0004008BF6FF086
:100B1000004070474FF00000704700BF4FEA4102AD
:100B2000B2F1E04324BFB3F5001CDCF1FE5C0DD94B
:100B300001F0004C4FEAC0024CEA5070B2F1004F95
:100B400040EB830008BF20F00100704711F0804F98
:100B500021D113F13872BCBF01F00040704741F45D
:100B600080114FEA5252C2F11802C2F1200C10FA61
:100B70000CF320FA02F018BF40F001004FEAC12345
:100B80004FEAD32303FA0CFC40EA0C0023FA02F3E9
:100B90004FEA4303CCE77FEA625307D150EA0133BF
:100BA0001EBF4FF0FE4040F44000704701F000408F
:100BB00040F0FE4040F40000704700BF53B94AB90E
:100BC000002908BF00281CBF4FF0FF314FF0FF3055
:100BD00000F07AB9ADF1080C6DE904CE00F006F82A
:100BE000DDF804E0DDE9022304B070472DE9F047A9
:100BF0008C460D460446089E002B51D18A4217466A
:100C00006DD9B2FA82FEBEF1000F0BD0CEF1200CEE
:100C100001FA0EF520FA0CFC02FA0EF74CEA050C6C
:100C200000FA0EF44FEA174A250CBCFBFAF81FFA3B
:100C300087F90AFB18CC45EA0C4508FB09F3AB42DF
:100C40000AD9ED1908F1FF3280F02381AB4240F25E
:100C50002081A8F102083D44ED1AA4B2B5FBFAF0D8
:100C60000AFB105544EA054400FB09F9A14509D9DE
:100C7000E41900F1FF3380F00A81A14540F20781B9
:100C800002383C44A4EB090440EA08400021002E4D
:100C900061D024FA0EF4002334607360BDE8F0875D
:100CA0008B4207D9002E54D0002186E82100084647
:100CB000BDE8F087B3FA83F1002940F08E80AB42A3
:100CC00002D3824200F2FA80841A65EB0305012008
:100CD000AC46002E3FD086E81010BDE8F08712B970
:100CE0000127B7FBF2F7B7FA87FEBEF1000F34D148
:100CF000EB1B3A0C1FFA87FC0121B3FBF2F8250C21
:100D000002FB183345EA03450CFB08F3AB4207D955
:100D1000ED1908F1FF3002D2AB4200F2D1808046DB
:100D2000ED1AA3B2B5FBF2F002FB105543EA0544FD
:100D30000CFB00FCA44507D9E41900F1FF3302D2F3
:100D4000A44500F2B8801846A4EB0C0440EA084021
:100D50009DE731463046BDE8F087CEF1200405FA24
:100D60000EF307FA0EF720FA04F83A0C25FA04F409
:100D700048EA0308B4FBF2F14FEA184502FB1144BC
:100D80001FFA87FC45EA044501FB0CF3AB4200FA6D
:100D90000EF409D9ED1901F1FF3080F08A80AB42E1
:100DA00040F2878002393D44EB1A1FFA88F5B3FB05
:100DB000F2F002FB103345EA034500FB0CF3AB42B3
:100DC00007D9ED1900F1FF386FD2AB426DD9023867
:100DD0003D44EB1A40EA01418FE7C1F1200722FAB6
:100DE00007F88B4005FA01F448EA030320FA07FEEE
:100DF0004FEA134CFD404EEA040EB5FBFCF94FEAF6
:100E00001E440CFB19551FFA83F844EA054509FBFB
:100E100008F4AC4202FA01F200FA01FA08D9ED181E
:100E200009F1FF3043D2AC4241D9A9F102091D4476
:100E30002D1B1FFA8EFEB5FBFCF00CFB10554EEA85
:100E4000054400FB08F8A04507D9E41800F1FF3578
:100E500029D2A04527D902381C4440EA0940A4EB16
:100E60000804A0FB02894C45C6464D4615D312D056
:100E700056B1BAEB0E0364EB050404FA07F7CB4056
:100E80001F43CC40376074600021BDE8F0871846EE
:100E9000F8E69046E0E6C245EAD2B8EB020E69EB0E
:100EA00003050138E4E72846D7E7404691E7814645
:100EB000BEE7014678E702383C4445E7084608E7C4
:100EC000A8F102083D442BE7704700BF90B583B0FE
:100ED00000AF0C4A0B4B5B6823F001035360EFF348
:100EE00009831C4623467B607B6868337B607B6894
:100EF0003B603B6883F3098801F0B1FC0C37BD46C9
:100F000090BD00BF30EF00E090B585B000AF01F0BC
:100F1000A1FC184B5B6803F40063002B25D0F1EEB5
:100F2000103A7B60EFF309831C462346FB60FB68A5
:100F3000683BFB60FB684FF08072DA610E4BDB6848
:100F40001A46FB681A66FB68BB60BB6883F30988B6
:100F500002F0C8FD0346002B03D0FB68074A9A61E4
:100F600005E0FB68064A9A6101E001F078FC14375D
:100F7000BD4690BD00ED00E030EF00E03103000819
:100F80003403000880B582B000AF7860786801F063
:100F9000D5FD0837BD4680BD80B586B000AFF8608E
:100FA0007A603B600B46FB727B68012B05D1FB7AB4
:100FB00063F07F03DBB2FB7504E0FB7A63F03F0371
:100FC000DBB2FB75F86806F00AFF07F117031A4653
:100FD0000121F86806F02FFF3A687968F86806F092
:100FE00044FFF86806F011FF1837BD4680BD80B594
:100FF00086B000AFF8607A603B600B46FB727B689E
:10100000012B02D1FB7AFB7504E0FB7A43F040032D
:10101000DBB2FB75F86806F0E2FE07F117031A462B
:101020000121F86806F007FF3A687968F86806F069
:1010300002FFF86806F0E9FE1837BD4680BD80B4AF
:1010400083B000AF7860032318460C37BD465DF8C7
:10105000047B704780B588B000AF786039600023AA
:10106000BB617A687B681B681B68D31A7B617B69EC
:10107000DB68186807F10C0306222821FFF78CFFB4
:101080000023FB771FE0FB7F5B0007F12002134486
:1010900013F8143C9AB2FB7F5B00013307F1200187
:1010A0000B4413F8143C9BB21B029BB213449BB23B
:1010B0007B82FB7F9B003A681344B7F912201A60C9
:1010C000FB7F0133FB77FB7F022BDCD9BB69184622
:1010D0002037BD4680BD80B588B000AF78603960EC
:1010E0007A687B681B681B68D31ABB6107F1080329
:1010F00019467868FFF7AEFF78610023FB6126E0B0
:10110000FB699B003A681A44FB699B0007F12001C8
:101110000B4453F8183C07EE903AB8EEE77AB969F9
:10112000FB6904339B000B440433D3ED007A27EEB4
:10113000277AB969FB6908339B000B44D3ED007A29
:1011400077EE677AC2ED007AFB690133FB61FB69D8
:10115000022BD5D97B6918462037BD4680BD0000DB
:1011600080B58CB000AF78600023BB600023FB60CB
:1011700000233B617A687B681B681B68D31A3B625B
:101180000023FB6230E007F1140319467868FFF78B
:1011900061FF78627B6A002B01D07B6A61E00023EB
:1011A000BB6218E0BB6A9B0007F13002134453F89E
:1011B000282CBB6A9B0007F130010B4453F81C3C00
:1011C0001A44BB6A9B0007F130010B4443F8282CFA
:1011D000BB6A0133BB62BB6A022BE3D93220FFF743
:1011E000D1FEFB6A0133FB62FB6A312BCBD90023B2
:1011F000FB6232E0FB6A9B0007F13002134453F8B4
:10120000283C1A4A82FB03121211DB17D31A07EE8D
:10121000903AF8EEE77A3A6AFB6A08339B00134487
:10122000C3ED007A3A6AFB6A08339B00134493EDDE
:10123000007A3A6AFB6A04339B0013440433D3ED0B
:10124000007A67EE277A3A6AFB6A08339B001344F8
:10125000C3ED007AFB6A0133FB62FB6A022BC9D93A
:101260007B6A18463037BD4680BD00BF1F85EB51F5
:1012700080B487B000AF7860396000233B617A6842
:101280007B681B681B68D31AFB6000237B610DE041
:101290007B699B003A6813441A68F9687B690833D4
:1012A0009B000B441A607B6901337B617B69022BD5
:1012B000EED93B6918461C37BD465DF8047B704784
:1012C00080B487B000AF786000233B617A687B68A8
:1012D0001B681B68D31AFB6000237B610AE0FA6875
:1012E0007B6908339B0013444FF000021A607B694E
:1012F00001337B617B69022BF1D93B6918461C37AE
:10130000BD465DF8047B704780B487B000AF78605D
:10131000396000233B617A687B681B681B68D31ABD
:10132000FB6000237B610EE07B699B003A681344FD
:101330001A68F9687B6904339B000B4404331A6014
:101340007B6901337B617B69022BEDD93B691846D0
:101350001C37BD465DF8047B7047000080B487B041
:1013600000AF786000233B617A687B681B681B686C
:10137000D31AFB60FB68DB681B7C002B11D10023B8
:101380007B610AE0FA687B6904339B0013440433F1
:10139000204A1A607B6901337B617B69022BF1D99A
:1013A00030E0FB68DB681B7C102B11D100237B61D4
:1013B0000AE0FA687B6904339B0013440433164A3D
:1013C0001A607B6901337B617B69022BF1D919E0DB
:1013D000FB68DB681B7C202B11D100237B610AE0BA
:1013E000FA687B6904339B00134404330B4A1A6088
:1013F0007B6901337B617B69022BF1D902E06FF0DD
:10140000010300E03B6918461C37BD465DF8047BCC
:10141000704700BF295C0F3C295C8F3C295C8F3DE5
:1014200080B588B000AF78600B46FB7000237B610D
:10143000FB78002B02D13C4BFB610EE0FB78102BBC
:1014400002D13A4BFB6108E0FB78202B02D1384BEC
:10145000FB6102E06FF0010361E07B6893ED0B7AC2
:10146000D7ED077AB4EE677AF1EE10FA56D07B68C2
:1014700093ED0B7AD7ED076AC6EE877AC7ED047A4B
:101480007B68FA69DA627B68DB68186807F10F032A
:1014900001222321FFF780FDFB7B23F03003DBB229
:1014A000FB73FA7BFB781343DBB2FB737B68DB686F
:1014B000186807F10F0301222321FFF798FD00238D
:1014C000FB7628E0FB7EFA7E7968043292000A44BB
:1014D000043292ED007AD7ED047A67EE277A7A68C3
:1014E00004339B0013440433C3ED007AFB7EFA7E81
:1014F0007968083292000A4492ED007AD7ED047AB6
:1015000067EE277A7A6808339B001344C3ED007AAC
:10151000FB7E0133FB76FB7E022BD3D97B69184619
:101520002037BD4680BD00BF00007A430000FA436B
:101530000000FA4480B483B000AF78607B68084A4A
:101540001A607B68074A5A607B680022DA607B6811
:1015500001221A720C37BD465DF8047B704700BF4C
:10156000808F0008888F000880B586B000AF786053
:10157000396007F10C0300221A601A717B683A681F
:10158000DA607B68DB685B7C43F00F03DBB23B73A4
:101590007B68DB681B7CFB737B68DB681A687B6895
:1015A000DB685B681946104606F004FC7B68DB6864
:1015B000186807F10C0305222021FFF718FD7B684E
:1015C000DB681B7C002B28D17B685C4ADA62002335
:1015D0007B611EE07B68DB689B68002B08D17A6822
:1015E0007B6904339B0013440433554A1A600DE0B1
:1015F0007B68DB689A687B699B0013441A6879688A
:101600007B6904339B000B4404331A607B6901330C
:101610007B617B69022BDDD95AE07B68DB681B7C30
:10162000102B28D17B68474ADA6200237B611EE0D9
:101630007B68DB689B68002B08D17A687B69043380
:101640009B0013440433404A1A600DE07B68DB685A
:101650009A687B699B0013441A6879687B69043334
:101660009B000B4404331A607B6901337B617B6907
:10167000022BDDD92CE07B68DB681B7C202B27D17B
:101680007B68324ADA6200237B611EE07B68DB689C
:101690009B68002B08D17A687B6904339B00134454
:1016A00004332B4A1A600DE07B68DB689A687B691B
:1016B0009B0013441A6879687B6904339B000B44D0
:1016C00004331A607B6901337B617B69022BDDD9AE
:1016D0007B68DB68DB68002B16D000237B610FE0A2
:1016E0007B68DB68DA687B699B0013441A68796859
:1016F0007B6908339B000B441A607B6901337B6173
:101700007B69022BECD910E000237B610AE07A6848
:101710007B6908339B0013444FF000021A607B6919
:1017200001337B617B69022BF1D96420FFF72AFC2E
:101730007B6802221A721837BD4680BD00007A43CA
:10174000295C0F3C0000FA43295C8F3C0000FA44FE
:10175000295C8F3D80B489B000AFF860B9607A60D1
:101760003B60BB687B613B68002B02D1BB683B617F
:1017700001E03B683B61FB680B33BB617B697A68C6
:10178000B3FBF2F2796801FB02F29B1AFB61FB6981
:101790003033FB61FB69392B02DDFB690733FB61E9
:1017A000BB69013BBB61FB69DAB2BB691A707A693C
:1017B0007B68B2FBF3F37B613A697B68B2FBF3F3BE
:1017C0003B613B69002BD9D1FB680B331A46BB69DF
:1017D000D31AFB61FB685A1CFA60BA69511CB961E3
:1017E00012781A70FB69013BFB61FB69002BF1D198
:1017F000FB6818462437BD465DF8047B704780B50A
:1018000084B000AFF860B9607A6000237A68B96884
:10181000F868FFF79FFF034618461037BD4680BDA6
:10182000B0B586B000AFF86087ED000BB960BB685B
:10183000002B02D0BB68092B01D90923BB60BB6810
:10184000013B224A52F82330BB60D7E90001FFF781
:101850003DF903467B6100230A227969F868FFF7A6
:1018600079FFF860FB685A1CFA602E221A707869BA
:10187000FEF7B4FE03460C461A462346D7E900019C
:10188000FEF75EFD03460C4625461C46B868FEF78B
:1018900095FE02460B4620462946FEF705FF034605
:1018A0000C4618462146FFF711F903467B61BB68D9
:1018B000074AA2FB0323DB080A227969F868FFF7CD
:1018C00049FF034618461837BD46B0BDAC8F000827
:1018D000CDCCCCCCB0B594B000AFF860B9607A6034
:1018E00000237B63BB685A1CBA601B7887F84730BB
:1018F00097F84730002B01D17B6B3CE297F84730DB
:10190000252B0BD0FB681B68DB6897F84720114636
:10191000F86898477B6B01337B63E3E707F11003BB
:10192000FB6407F11003BB64002387F83230BB6807
:101930001B782D2B05D1BB680133BB60012387F8D1
:101940003230202387F84630BB681B78302B05D116
:10195000BB680133BB60302387F846300023BB638C
:10196000BB685A1CBA601B7887F8473097F8473035
:101970002F2B09D997F84730392B05D897F84730DE
:10198000303B87F8473009E097F847302A2B10D1D1
:101990007B681A1D7A601B6887F84730BA6B13465C
:1019A0009B0013445B001A4697F847301344BB630F
:1019B000D6E70023FB6397F847302E2B29D1BB686D
:1019C0005A1CBA601B7887F8473097F847302F2B9E
:1019D00009D997F84730392B05D897F84730303B6D
:1019E00087F8473009E097F847302A2B11D17B68F8
:1019F0001A1D7A601B6887F84730FA6B13469B0004
:101A000013445B00FB6397F84730FA6B1344FB63A6
:101A1000D5E797F847306C2B03D097F847304C2B1D
:101A20000DD1012387F83330BB681B78002B1AD007
:101A3000BB685A1CBA601B7887F8473014E097F8E7
:101A40004730402B05D997F847305A2B01D801234E
:101A500000E0002387F8333097F8333003F00103B8
:101A600087F8333000E000BF97F84730443B342B11
:101A700000F2118101A252F823F000BFB31B00084D
:101A8000971C0008971C0008971C0008971C00086A
:101A9000B31B0008971C0008971C0008971C00083F
:101AA000971C0008971C0008611C0008971C000880
:101AB000971C0008971C0008971C0008971C00083A
:101AC000591C0008971C0008971C0008511C0008AE
:101AD000971C0008971C0008971C0008971C00081A
:101AE000971C0008971C0008971C0008971C00080A
:101AF000971C0008971C0008511B0008B31B000826
:101B0000971C0008F51B0008971C0008971C00088C
:101B1000B31B0008971C0008971C0008971C0008BE
:101B2000971C0008971C0008611C0008971C0008FF
:101B3000971C0008971C00086B1B0008971C0008E6
:101B4000591C0008971C0008971C0008511C00082D
:101B5000202387F84630FB6C5A1CFA647A68111D02
:101B600079601268D2B21A709BE0202387F8463061
:101B70007B681A1D7A601B68BB64BB6C002B01D1AB
:101B80007F4BBB64FB6B002B02D147F6FF73FB63FB
:101B9000BB6CFB6402E0FB6C0133FB64FB6C1B78E9
:101BA000002B7ED0FB6B013BFB63FB6B002BF2DA5F
:101BB00077E097F83330002B05D07B681A1D7A60E8
:101BC0001B68FB6204E07B681A1D7A601B68FB627D
:101BD000FB6A002B07DAFB6C5A1CFA642D221A7080
:101BE000FB6A5B42FB620A22F96AF86CFFF707FEA8
:101BF000F86456E07B68073323F0070303F108021B
:101C00007A6018CB18462146FEF788FF0346BB6270
:101C1000D7ED0A7AF5EEC07AF1EE10FA0AD5FB6C30
:101C20005A1CFA642D221A70D7ED0A7AF1EE677AFF
:101C3000C7ED0A7AB86AFEF7E3FC04460D46FB6B73
:101C4000194645EC104BF86CFFF7EAFDF86428E004
:101C5000102387F8473006E00A2387F8473002E070
:101C6000082387F8473097F83330002B05D07B687E
:101C70001A1D7A601B68FB6204E07B681A1D7A609B
:101C80001B68FB6297F847301A46F96AF86CFFF751
:101C9000B6FDF86405E0FB6C5A1CFA6497F847201F
:101CA0001A70FA6CBB6CD31A3B64BA6B3B6CD31AD8
:101CB000BB63BB6B002B01DA0023BB6397F83230A8
:101CC00083F00103DBB2002B02D0BB6B5B42BB6332
:101CD000BB6B002B36DABB6C1B782D2B13D197F81E
:101CE0004630302B0FD1FB681B68DA68BB6C591C7F
:101CF000B9641B781946F86890477B6B01337B63A6
:101D00003B6C013B3B64FB681B68DB6897F8462033
:101D10001146F86898477B6B01337B63BB6B0133DB
:101D2000BB63BB6B002BEED10CE0FB681B68DA6871
:101D3000BB6C591CB9641B781946F86890477B6BDB
:101D400001337B633B6C013B3B643B6C002BECDA67
:101D50000DE0FB681B68DB6897F846201146F868C1
:101D600098477B6B01337B63BB6B013BBB63BB6BF6
:101D7000002BEED1B6E518465037BD46B0BD00BFCA
:101D8000D08F00080EB480B585B000AF786007F141
:101D90002003BB60BA68F9697868FFF79BFDF860BB
:101DA000FB6818461437BD46BDE8804003B0704755
:101DB00080B483B000AF20237B607B6883F31188FD
:101DC0000C37BD465DF8047B704780B483B000AF2C
:101DD00000237B607B6883F311880C37BD465DF878
:101DE000047B704780B500AFFFF7E2FF80BD80B590
:101DF00000AFFFF7EAFF80BD80B500AFFFF7F2FF4D
:101E000080BD80B500AFFFF7F2FF80BD80B500AFA9
:101E1000FFF7F2FF80BD80B500AFFFF7F2FF80BD96
:101E200080B483B000AF7860084611461A46034676
:101E3000FB700B46BB7013463B80FB78022B05D032
:101E4000032B05D0012B0BD1094B0AE0094B08E00D
:101E5000BB78032B04D8BB78DB00074A134400E0AF
:101E6000002318460C37BD465DF8047B704700BF61
:101E7000EC8F000838900008AC90000880B582B064
:101E800000AF78600B46FB70FB78062B31D801A2BF
:101E900052F823F0D51E0008F31E0008B11E0008FA
:101EA000D51E0008D51E0008E51E0008F31E000818
:101EB000FFF7A2FF104A0121786804F0C2FB0F4A25
:101EC0000221786804F0BDFB0D4805F0C5FDFFF761
:101ED00098FF0EE0FFF790FF094805F087FDFFF738
:101EE00090FF06E0FFF788FF054805F0A1FDFFF72A
:101EF00088FF0837BD4680BDCC900008F0900008F0
:101F0000D00C002080B582B000AF7860FFF77EFF74
:101F1000034805F005FEFFF77EFF0837BD4680BD8C
:101F2000D00C002080B483B000AF20237B607B689E
:101F300083F311880C37BD465DF8047B704780B48D
:101F400083B000AF00237B607B6883F311880C377C
:101F5000BD465DF8047B704780B400AF4FF080430E
:101F60005B6A1846BD465DF8047B704780B500AFDC
:101F7000FFF7F2FF0346184680BD80B500AFFFF7BC
:101F8000D1FF80BD80B500AFFFF7D9FF80BD80B520
:101F900000AFFFF7EBFF0346184680BD80B582B067
:101FA00000AFFFF7EAFFFFF7F2FF7860FFF7EAFF05
:101FB0007B6818460837BD4680BD000080B483B0FA
:101FC00000AF7860044B9B697A689A610C37BD4614
:101FD0005DF8047B704700BFF00B00202DE9F04F47
:101FE00091B000AF786300F089FA5648FFF7E6FF3A
:101FF000554B1B681B78042B01D1FA2301E04FF4E9
:10200000FA73FB63514A4FF480435383FB6B1946C9
:102010004FF000020B461446A000F862F86A40EA4E
:102020009370F8629B00BB62D7E90A345B1844EBFB
:102030000204E0007862786A40EA53707862DB005C
:102040003B62D7E908345B1A64EB02042001F861B3
:10205000F86940EA1370F8611B01BB61D7E90634E7
:102060005B1844EB020422017A617A6942EA137236
:102070007A611B013B61D7E904341946224640F2DC
:10208000E7334FF00004CD1842EB040628463146F2
:102090004FF47A724FF00003FEF790FD03460C46B2
:1020A000184600F04BFD294A4FF480431383FB6B25
:1020B00019464FF000020B461446A000F860F8687D
:1020C00040EA9370F8609B00BB60D7E902345B186C
:1020D00044EB02044FEAC40B4BEA537B4FEAC30ABA
:1020E00053465C465B1A64EB02044FEA041949EA62
:1020F00013794FEA031843464C465B1844EB02043D
:1021000022017A607A6842EA13727A601B013B60AE
:1021100097E818001946224640F2E7334FF00004D2
:10212000CD1842EB0406284631464FF47A724FF040
:102130000003FEF743FD03460C46184600F0FEFC84
:1021400056E700BF4091000824910008000C0240AF
:10215000F0B583B002AF05F01DFF01F033F94D4833
:1021600005F0D6FB4C494B4805F00CFC4A4B1B686C
:102170005B6D494A1268526D926B22F400229A6399
:1021800043F6982000F0DAFC434B1B68434918469D
:1021900004F032FA404B1B685B6D3F4A1268526D87
:1021A000926B42F400229A63002300933C4B8022FE
:1021B0004FF4E8713B4800F043FC3B48FFF7BAF9A5
:1021C0003A493948FFF7D0F9374B5B689B68384983
:1021D00038489847384B1B6838491846FFF7D2FDF6
:1021E000374B00221A6014E0334B1868344B1B68DD
:1021F000344AD35C1946324B1B682D4A52F82330BF
:102200000A463149FFF7BEFD2D4B1B6801332C4AAE
:1022100013602B4B1B68022BE6D9234B5B68DB68F2
:102220002A4924489847244B1B6829491846FFF738
:10223000A9FD234B00221A601DE01F4B1D68204B97
:102240001B68204AD35C1E461D4B1B681F4A9B001F
:1022500013441B681846FEF7D3F903460C468DE875
:10226000180032461B492846FFF78CFD144B1B68AB
:102270000133134A1360124B1B68022BDDD94FF454
:102280007A7000F05BFC0C4B1B6813491846FFF793
:1022900079FD99E7D00C00202491000814910008E2
:1022A000DD1F0008E0110020901100202C08002004
:1022B000C01100209411002040080020489100081F
:1022C000D81100202808002068910008CC110020B7
:1022D000789100089C910008AC91000880B400AF90
:1022E00000231846BD465DF8047B704780B400AFFC
:1022F000034B00221A60BD465DF8047B704700BFA7
:10230000C813002080B500AFFFF748FE0246014B1E
:102310001A6080BDC813002080B586B000AFF86099
:10232000B9601346FB80BB681A78FB681A70FB68BB
:102330000133BA6852781A70FB680233FA88D2B255
:102340001A70FB880233FB82FB8A1946F86800F09A
:1023500029F90346BB82FB8AFA681344BA8AD2B2CF
:102360001A70FB8A0133FA681344BA8A120A92B2CD
:10237000D2B21A70FB8A02339BB218461837BD4698
:1023800080BD000080B582B000AF78600B467B80D6
:102390007B887A681946034803F067FE0837BD4614
:1023A00080BD00BF700A002080B584B000AF7860A7
:1023B0000B467B800023FB737B881946786800F00E
:1023C000F1F80346BB817B6806331B781B021AB207
:1023D0007B6807331B781BB213431BB27B81BA891E
:1023E0007B899A4201D10123FB73FB7B184610378E
:1023F000BD4680BD80B584B000AFF8600846114688
:102400001A4603467B810B463B811346FB803A8983
:10241000FB8813440C2B01DD00230AE0FB68D81C69
:10242000FB885B00054A13443A89194606F03CFCD8
:10243000012318461037BD4680BD00BFB0130020F1
:1024400080B582B000AFFF23FB71FB1D1A4601214E
:10245000044803F01FFE97F9073018460837BD46B9
:1024600080BD00BF700A002080B584B000AF7860E6
:102470000B467B804FF6FF73FB8100237B730023A9
:102480003B7331E0FFF7DCFF0346FB817B7B9BB2B4
:102490007A889A4204D1FFF721FF0346002B03D12B
:1024A000B7F90E30002BEDDBFFF718FF0346002BCA
:1024B0000CD07B7B9BB27A889A4202D101233B737A
:1024C0000DE000237B73FFF711FF08E07B7B7A6848
:1024D0001344FA89D2B21A707B7B01337B734FF6B7
:1024E000FF73FB81FFF70EFF3B7B83F00103DBB241
:1024F000002BD5D11037BD4680BD000080B58AB015
:1025000000AF254B14221A602449254803F098FD9A
:102510003B1D08211846FFF7A7FF3B79012BF7D198
:102520007B79032B02D07B79002BF1D13B1D082155
:102530001846FFF739FF0346002BE9D03B7A1B0210
:102540001AB27B7A1BB213431BB2FB84BB791B020A
:102550001AB2FB791BB213431BB2BB84BB8CFA8C3F
:1025600007F10C001421FFF745FF0346002BCFD0E5
:10257000FB8C5B009AB2391D07F10C031846FFF77C
:10258000CBFE03467B847A8C07F10C031146184678
:10259000FFF7F8FEBCE700BFCC13002008080020BE
:1025A000700A002080B485B000AF78603960FF23E6
:1025B000FB73FF23BB7313E07B685A1C7A601A78A5
:1025C000BB7B5340DBB2BB600D4ABB6813441A7837
:1025D000FB7B5340BB730B4ABB6813441B78FB73F4
:1025E0003B685A1E3A60002BE6D1FB7B1A02BB7B8C
:1025F000134318461437BD465DF8047B704700BF8F
:10260000B8910008B892000880B483B000AF2023CE
:102610007B607B6883F311880C37BD465DF8047BD3
:10262000704780B483B000AF00237B607B6883F386
:1026300011880C37BD465DF8047B704780B500AF4C
:10264000FFF7E2FF80BD80B500AFFFF7EAFF80BD76
:1026500080B400AF044B054A1A60034B044A5A6029
:10266000BD465DF8047B7047680C0020D013002045
:102670000000012080B487B000AFF860B9607A60D4
:10268000BA68FB6813445A1EBB685B421340FB6088
:10269000124B1A687B6813441A46BB6813445A1ECF
:1026A000BB685B4213407B617A69FB6813443B6102
:1026B0000A4B5A683B699A4204D3084B1A683B6933
:1026C0009A4201D9002303E0044A3B6913607B6905
:1026D00018461C37BD465DF8047B7047680C002027
:1026E00080B586B000AFF860B9607A60FFF7A6FFEA
:1026F0007A68B968F868FFF7BDFF7861FFF7A3FF54
:102700007B6918461837BD4680BD000080B500AF14
:10271000064B074A1A60054B00225A60034B002201
:102720009A60044800F0A0F880BD00BF700C002043
:10273000E12600087C0C002080B485B000AFF86072
:10274000B9607A603B60FB6800221A60FB68BA6877
:102750005A60FB687A689A60FB683A68DA601437F6
:10276000BD465DF8047B704780B582B000AF7860ED
:102770003960002239687868FFF77CFF0346184605
:102780000837BD4680BD80B584B000AFF860B96041
:102790007A607B680422B968F868FFF7CDFF1037CC
:1027A000BD4680BD80B483B000AF78607B687A6836
:1027B0001A600C37BD465DF8047B704780B500AFEA
:1027C0000E4800F051F80E48FFF7ECFF0D4A1421B7
:1027D0000D48FFF7D8FF0D48FFF7E4FF0C48FFF75F
:1027E000E1FF084A1C210B48FFF7CDFF0A48FFF71D
:1027F000D9FF0A48FFF7D6FF80BD00BF8C0C002030
:102800009C0C002069270008A00C0020B00C0020C0
:10281000B40C0020B80C0020C80C0020CC0C002008
:1028200080B483B000AF20237B607B6883F3118882
:102830000C37BD465DF8047B704780B483B000AFB1
:1028400000237B607B6883F311880C37BD465DF8FD
:10285000047B704780B500AFFFF7E2FF80BD80B515
:1028600000AFFFF7EAFF80BD80B582B000AF7860AF
:102870007B68184600F080FA7B6800229A6008376F
:10288000BD4680BD80B584B000AF786039607B689C
:102890001B68FB601AE0FB68DA683B681A43FB6858
:1028A000DA603B68002B06D0FB68DA68FB681B69BE
:1028B0001340002B07D0FB685A68FB689B681946D9
:1028C000104600F00AF8FB681B68FB60FA687B683A
:1028D0009A42E0D11037BD4680BD80B582B000AFCE
:1028E000786039607B685A6B3B681A437B685A632F
:1028F0007B6893F820300A2B06D17B685A6B7B6883
:102900005B6A1340002B0DD17B6893F820300B2BB2
:102910000ED17B685A6B7B685B6A1A407B685B6A86
:102920009A4205D17B6800225A62786800F0CAFF9B
:102930000837BD4680BD000080B584B000AFF860A8
:10294000B9607A60FB687A689A60FB68022283F853
:102950002020FB68002283F82120FB687A68DA6374
:10296000FB6800229A63FB6800225A63FB6801221D
:1029700083F82220FB68BA689A61FB680D4A1A61E5
:102980000C4B5A69FB685A61FB685B69FA681A610B
:10299000084AFB685361FB682833184601F0F6F8D3
:1029A000FB682C33184601F00FF9FB681846103706
:1029B000BD4680BDF00B002080B584B000AF7860CC
:1029C0007B689B68483BFB607B685A68FB68DA6100
:1029D000FB68A3F16402FB68DA60FB68DB687A6875
:1029E00012691A64FB68DB687A6852695A64FB688A
:1029F000DB68074A1A667B6819687B68DB681A46D9
:102A0000F868FFF799FF034618461037BD4680BDAA
:102A10002103000880B584B000AF786001F035F97B
:102A20007868FFF7C9FFF8600021F86801F030F816
:102A300001F030F9FB6818461037BD4680BD000034
:102A400080B586B000AFF860B9607A603B6001F095
:102A50001CF9BB68483BFA6813447B617B69FA68E0
:102A6000DA617B69A3F164027B69DA607B69DB6808
:102A70003A681A647B69DB683A6A5A647B69DB6886
:102A8000094A1A667A6809497869FFF755FF78613B
:102A90000021786900F0FCFF01F0FCF87B69184622
:102AA0001837BD4680BD00BF21030008B893000859
:102AB00080B582B000AF786001F0E7F8786800F088
:102AC00003F80837BD4680BD80B584B000AF78609C
:102AD000194B9B69FB60FB687A685A6208E0FB68E7
:102AE0002833184601F091F80346184600F0EAFE34
:102AF000FB682833184601F055F80346002BEED149
:102B0000FB6893F82230002B10D1FB6893F821303A
:102B100003F00303002B09D1FB685B69FA681269B3
:102B20001A61FB681B69FA6852695A610F2000F04C
:102B30001DFF1037BD4680BDF00B002080B582B070
:102B400000AF786001F0A1F8786801F0B5F801F005
:102B5000A1F80837BD4680BD80B584B000AF78606D
:102B6000396001F09DF8F8603B68002B02D14FF00E
:102B7000FF330AE07B68FA681A60FB687A685A6279
:102B80003968032000F050FF034618461037BD4651
:102B900080BD80B584B000AF786039607B681B6809
:102BA000002B0BD07B681B68FB607B6800221A60DF
:102BB000FB683A685A62F86800F084FE1037BD4638
:102BC00080BD000080B582B000AF786039603B689E
:102BD000002B02D14FF0FF330AE0074B9B69796865
:102BE000184601F024F83968042000F01DFF034660
:102BF00018460837BD4680BDF00B002080B582B076
:102C000000AF78603960786800F0EDFF0346002B74
:102C100003D03968786801F05AF80837BD4680BD9E
:102C200080B582B000AF7860396003E039687868B9
:102C300001F04DF8786800F0D6FF0346002BF5D17F
:102C40000837BD4680BD000080B400AF034B5B6811
:102C50001846BD465DF8047B704700BF001000E0D9
:102C600090B484B000AFF860B9607A60FB68DB684C
:102C70005A1CFB68DA60FB689B68BA68D21A7B68EA
:102C8000D21AFB689A60FB68D3E90412FB689B6860
:102C90004FF000045B1844EB0204FA68C2E9043404
:102CA000FB689A68FB685B689A4203D9FB689A687C
:102CB000FB685A60FB689A68FB681B689A4203D2FB
:102CC000FB689A68FB681A601037BD4690BC704775
:102CD00080B586B000AF0A4B00225A673B461846C3
:102CE00000F010F83B46184600F028F83B4618461E
:102CF00000F030F8BB68024A53671837BD4680BD04
:102D0000F00B002090B482B000AF78607B684FF089
:102D1000FF321A607B6800225A607B6800229A604A
:102D20007B680022DA607A684FF000034FF00004FD
:102D3000C2E904340837BD4690BC704780B582B004
:102D400000AF7860FFF780FF02467B689A60083723
:102D5000BD4680BD80B582B000AF7860FFF774FFDC
:102D60000146044B5B6F1A467868FFF779FF083716
:102D7000BD4680BDF00B002080B483B000AF78600A
:102D80007B687A681A607B687A685A600C37BD463F
:102D90005DF8047B7047000080B500AF024801F089
:102DA000BDFEFEF7B1F880BD700A002080B500AF0F
:102DB000064803F030F9054B054A9A60034B054A73
:102DC0001A61024B044A5A6180BD00BF700A00209C
:102DD00000140140248E0008608E000880B584B085
:102DE00000AF78607B681B78012B4AD17B682B4A47
:102DF000934227D17B6818697B68294A0C2102F02D
:102E000021F80346FB737B6858697B68254A0C21CF
:102E100002F018F80346FB73234A234B5B6C43F024
:102E200020035364204A204B5B6E43F0200353661B
:102E30000C21472003F0DEFE7B68DB6843F0206254
:102E40007B68DA607B685B681B8B03F4A053B3F587
:102E5000805F05D17B68DB6843F420527B68DA60D1
:102E60007B681B691B687A68926804329A607B6889
:102E70005B691B687A68926804329A607B680022FA
:102E80001A837B6800229A707B6800225A707868E7
:102E900001F052FD1037BD4680BD00BF700A002012
:102EA000E9490008994A00080038024080B485B01A
:102EB00000AFF860B9607A60FB685B691B687A688C
:102EC000DA60FB685B691B68BA685A60FB685B691B
:102ED0001B68FA68D26842F48A621A60FB685B6811
:102EE0005B68002B0CD0FB689B686FF040021A6097
:102EF000FB689B68FA689268D26842F04002DA6028
:102F0000FB685B691B68FA6852691268126842F0D4
:102F100001021A601437BD465DF8047B704780B427
:102F200085B000AFF860B9607A60FB681B691B6808
:102F3000FA6812691268126822F01F021A60FB68B0
:102F40001B691B681B6803F00103002BF7D1FB68AA
:102F50001B695B68FA681269127A11463D228A4041
:102F60001A60FB681B691B687A68DA60FB681B697A
:102F70001B68BA685A60FB681B691B68FA68D268EC
:102F800042F482621A60FB681B691B68FA68126966
:102F90001268126842F001021A601437BD465DF8EB
:102FA000047B704780B483B000AF786039603B68C1
:102FB0005A687B685A603B689A687B689A603B688D
:102FC000DA687B68DA603B681A697B685A613B683B
:102FD0005A697B681A623B689A697B685A623B68E7
:102FE0001A687B681A600C37BD465DF8047B704731
:102FF00080B500AF164A164B1B6943F01F031361DF
:10300000134B00221A61124A114B1B6B43F01F0332
:1030100013630F4A0E4B1B6D43F01F0313650D49DD
:103020000D48FFF7BFFF0D490D48FFF7BBFF0D49E6
:103030000D48FFF7B7FF0D490D48FFF7B3FF0D49E6
:103040000D48FFF7AFFF0D490D48FFF7ABFF80BDFF
:1030500000380240A08E000800000240BC8E00082C
:1030600000040240D88E000800080240F48E0008D8
:10307000000C0240108F0008001002402C8F000846
:10308000001C024080B500AFFFF7B2FF03F060FE06
:1030900080BD80B400AFBD465DF8047B704780B44E
:1030A00083B000AF786039607A683B681344184693
:1030B0000C37BD465DF8047B704780B483B000AF29
:1030C000786039603A687B68D31A18460C37BD4679
:1030D0005DF8047B7047000080B485B000AF786075
:1030E0007B6803F00703FB600C4BDB68BB60BA68CE
:1030F0004FF6FF031340BB60FB681A02BB68134323
:1031000043F0BF6343F40033BB60044ABB68D36041
:103110001437BD465DF8047B704700BF00ED00E04A
:1031200080B483B000AF03463960FB7197F9073074
:10313000002B0ADB0D4997F907303A68D2B2120129
:10314000D2B20B4483F800230AE00949FB7903F06B
:103150000F03043B3A68D2B21201D2B20B441A7682
:103160000C37BD465DF8047B704700BF00E100E00E
:1031700000ED00E080B500AF0320FFF7ADFF0B4A84
:103180000A4BDB6843F08073D360094A084B1B6825
:1031900043F00103136001216FF00400FFF7C0FF4B
:1031A00002216FF00100FFF7BBFF80BDF0ED00E0F2
:1031B000001000E080B483B000AF20237B607B6808
:1031C00083F311880C37BD465DF8047B704780B4EB
:1031D00083B000AF00237B607B6883F311880C37DA
:1031E000BD465DF8047B704780B500AFFFF7E2FF96
:1031F00080BD80B500AFFFF7EAFF80BD80B400AFAF
:1032000072B6BD465DF8047B704780B483B000AFF2
:1032100000237B607B6883F3118862B60C37BD4660
:103220005DF8047B704780B400AFBD465DF8047B59
:103230007047000080B400AF034B5B681846BD4682
:103240005DF8047B704700BF001000E080B400AF61
:103250004FF080435B6A1846BD465DF8047B7047BB
:1032600080B500AF04F0E8FE80BD80B582B000AF4D
:103270007860786804F0E5FE0837BD4680BD80B50B
:1032800000AFFFF7E3FF0346184680BD80B500AFEF
:10329000FFF7BBFF80BD80B500AFFFF7A5FF80BD86
:1032A00080B500AFFFF7A5FF80BD80B500AFFFF789
:1032B000E6FF0346184680BD80B586B000AF3B4BA5
:1032C000DB697B61FFF7F1FFB860384B9B6AB96837
:1032D0001846FFF7F2FEF8607B699A68FB689A422D
:1032E00032D8324B9A6A7B699B6813442F4A9362A7
:1032F0007B699B68FA68D31AFB607B691B682C4A60
:103300005A607B691B68294AD3617B69DB687B60F3
:103310007B690022DA60254BDB69254A934201D1A3
:10332000FFF79EFFFFF7BCFF7B691A697B681046B9
:103330009847FFF7B0FF1D4BDB697B617B699A689B
:10334000FB689A42CDD9BDE7184BDB69184A934216
:1033500028D0164B9A6AFB681344144A9362134BA5
:10336000DB69124AD2699168FA688A1A9A600F4B2F
:103370009A6A7B699B6819461046FFF790FE0346E0
:103380001946B868FFF799FE38613B69012B01D8EF
:1033900002233B613969B868FFF781FE034618468E
:1033A000FFF763FF1837BD4680BD00BFF00B00205C
:1033B0000C0C002080B582B000AF7860FFF733FFBF
:1033C000FCE7000080B500AF00F06AFA00F0B8F842
:1033D000FFF77EFCFFF73CF9FFF798F9FFF7EEF9EE
:1033E00080220C490C48FFF7A7FA02460B4B9A6162
:1033F0000A4B9B690022DA61084B9B69012283F822
:103400002020FFF7B7FEFFF741FF0548FFF702FB5B
:1034100080BD00BF688F0008200C0020F00B00204A
:10342000508F000880B582B000AF7860FFF7E6FEED
:10343000014A7B68D362FEE7F00B002080B500AF45
:10344000FFF73AFF80BD80B485B000AFF860B96087
:103450007A60FA68BB68D21A7968BB68CB1A9A425C
:1034600034BF01230023DBB218461437BD465DF894
:10347000047B704780B584B000AF7860FFF7DAFE58
:10348000F860FA687B681344BB60FFF7D3FE03461D
:10349000BA68F9681846FFF7D6FF0346002BF4D147
:1034A0001037BD4680BD80B483B000AF786039600E
:1034B0007A683B68134418460C37BD465DF8047BB8
:1034C000704780B483B000AF786039603A687B6839
:1034D000D31A18460C37BD465DF8047B704780B49C
:1034E00000AF4FF080435B6A1846BD465DF8047B31
:1034F000704780B582B000AF7860786804F092FDC4
:103500000837BD4680BD80B500AF04F095FD80BD95
:1035100080B582B000AF7860786804F092FD08371B
:10352000BD4680BD80B500AFFFF7D9FF0346184602
:1035300080BD80B500AFFFF7F5FF0346184680BD9C
:1035400080B400AF084B094ADA61074B074A1A6298
:10355000054B4FF0FF325A62034B00229A62BD4680
:103560005DF8047B704700BFF00B00200C0C0020BE
:1035700080B588B000AFF860B9607A603B60FB68E6
:103580003A681A61FB687A68DA60FFF7D2FF7861FF
:10359000BB68012B01D80223BB60404BDB69404A6A
:1035A00093421CD13D4A7B6993623C4AFB68D361DC
:1035B0003A4AFB681362FB68394A1A60FB68384A6A
:1035C0005A60FB68BA689A60344B9B6AB9681846BF
:1035D000FFF769FF03461846FFF78BFF5AE02F4BB2
:1035E000DB69FB612D4B9B6A79691846FFF769FF20
:1035F0000246BB681344BB61284B9B6A7969184635
:10360000FFF75FFF0246BB699A4208D9FB699B68D6
:10361000BA69D31ABB61FB691B68FB6119E0FB69DE
:103620009A68BB699A4214D9BB693B611B4B9B6A80
:1036300039691846FFF737FF03461846FFF768FF5A
:1036400007E0FB699B68BA69D31ABB61FB691B6819
:10365000FB61FB699A68BB699A42F2D3FB68FA691D
:103660001A60FB681B685A68FB685A60FB685B68F5
:10367000FA681A60FB69FA685A60FB68BA699A606E
:10368000FB699A68BB69D21AFB699A60034B4FF0D9
:10369000FF325A622037BD4680BD00BFF00B0020CC
:1036A0000C0C002090B585B000AF7860364BDA691D
:1036B0007B689A421BD07B685B687A6812681A60E4
:1036C0007B681B687A6852685A607B680022DA60FF
:1036D0007B681B682D4A934251D07B681B687A68CF
:1036E000126891687A6892680A449A6048E07B6838
:1036F0001B68254AD361244BDB69244A5A607B68E6
:103700000022DA60204BDB69204A934202D1FFF7A6
:10371000FAFE35E01C4BDB691B4AD26991687A6876
:1037200092680A449A60184B9C6AFFF702FF0346AE
:1037300019462046FFF7C5FEB860134BDB699A684F
:10374000BB689A421CD9104BDB699A68BB68D31AD4
:10375000FB60FB68012B03D8BB680233FB6003E00E
:10376000FA68BB681344FB60074B9B6AF96818460C
:10377000FFF799FE03461846FFF7CAFE00E000BFB8
:103780001437BD4690BD00BFF00B00200C0C00208C
:1037900080B483B000AF20237B607B6883F3118803
:1037A0000C37BD465DF8047B704780B483B000AF32
:1037B00000237B607B6883F311880C37BD465DF87E
:1037C000047B704780B500AFFFF7E2FF80BD80B596
:1037D00000AFFFF7EAFF80BD80B483B000AF786030
:1037E0007B687A681A607B687A685A600C37BD46D5
:1037F0005DF8047B704780B485B000AF78607B686B
:103800001B68FB60FB681A687B681A607B681B6832
:103810007A685A60FB6818461437BD465DF8047B29
:10382000704780B483B000AF78607B685B687A686B
:1038300012681A607B681B687A6852685A607B68F5
:1038400018460C37BD465DF8047B704780B500AF65
:10385000FFF7B8FF80BD80B500AFFFF7B8FF80BDB0
:1038600080B483B000AF78607B68DB68002B14BF46
:1038700001230023DBB218460C37BD465DF8047BFC
:10388000704780B483B000AF78607B689B685A1C37
:103890007B689A600C37BD465DF8047B704700007A
:1038A00080B500AF0648FFF797FF054B00229A60EE
:1038B000034B034A1A61024B014A5A6180BD00BFA3
:1038C000F00B002080B485B000AF78607B680022E8
:1038D00083F820200F4BFB60FB681B68FB60FB68D4
:1038E0009A687B689B689A42F6D27B68FA681A608D
:1038F000FB685A687B685A607B685B687A681A6004
:10390000FB687A685A607B6818461437BD465DF8D4
:10391000047B7047F00B002080B485B000AF786066
:103920007B68002283F820200F4BFB60FB681B683C
:10393000FB60FB689A687B689B689A42F6D87B6854
:10394000FA681A60FB685A687B685A607B685B6833
:103950007A681A60FB687A685A607B681846143780
:10396000BD465DF8047B7047F00B002080B584B045
:1039700000AF0346FB710D4B9B69FB60FB68FA7956
:1039800083F820200948FFF736FF0246074B9A616B
:10399000064B9B69012283F82020044B9B69F96840
:1039A0001846FCF7B1FC1037BD4680BDF00B002077
:1039B00080B584B000AF78607B68FB60FFF746FF9E
:1039C000FB6893F82030072B22D801A252F823F08D
:1039D000F1390008113A0008113A0008F7390008D7
:1039E0000B3A0008013A0008113A00080B3A0008A7
:1039F000FFF731FF15E0FB685B6A00221A6007E001
:103A0000FB685B6A1846FFF73CFFF868FFF709FFA1
:103A1000FB684FF0FF325A62F868FFF753FFFFF779
:103A20001AFF1037BD4680BD80B588B000AF034691
:103A30003960FB713B68B3F1FF3F19D0124B9B69B2
:103A400007F10C00114A3968FFF792FDFB7918461F
:103A5000FFF78CFF07F10C031846FFF701FF034641
:103A6000002B09D007F10C031846FFF71BFE03E0FB
:103A7000FB791846FFF77AFF034B9B695B6A184690
:103A80002037BD4680BD00BFF00B0020B1390008D3
:103A900080B584B000AF78603960114B9B69FB60E2
:103AA0007B683A685A627B689A68FB689B689A42AE
:103AB00003D87868FFF706FF0EE0F868FFF702FF0B
:103AC000F860074A7B6893617B68012283F82020B5
:103AD000F9687868FCF718FC1037BD4680BD00BF58
:103AE000F00B002080B483B000AF0A4B1B689B68CA
:103AF0007B60084B9B699B683B607A683B689A4295
:103B00008CBF01230023DBB218460C37BD465DF89D
:103B1000047B7047F00B002080B582B000AF0D4BE6
:103B20009B697B600B48FFF766FE0246094B9A6172
:103B3000084B9B69012283F820207868FFF7ECFE90
:103B40007860044B9B6979681846FCF7DDFB083701
:103B5000BD4680BDF00B002080B483B000AF2023B1
:103B60007B607B6883F311880C37BD465DF8047B6E
:103B7000704780B483B000AF00237B607B6883F321
:103B800011880C37BD465DF8047B704780B483B064
:103B900000AF78607B687A681A600C37BD465DF8C4
:103BA000047B704780B483B000AF78607B681A688C
:103BB0007B689A4214BF01230023DBB218460C37FE
:103BC000BD465DF8047B704780B483B000AF786079
:103BD0007B687A681A607B687A685A600C37BD46E1
:103BE0005DF8047B704780B483B000AF78607B6879
:103BF0001A687B689A4214BF01230023DBB218467F
:103C00000C37BD465DF8047B704780B485B000AFCB
:103C100078607B681B68FB60FB681A687B681A60C9
:103C2000FB6818461437BD465DF8047B704780B4C6
:103C300083B000AF786039607B683A681A603B688F
:103C40005A687B685A607B685B687A681A603B6870
:103C50007A685A600C37BD465DF8047B704780B4C3
:103C600085B000AF78607B681B68FB60FB681A68F2
:103C70007B681A607B681B687A685A60FB68184624
:103C80001437BD465DF8047B704780B500AFFFF781
:103C900063FF80BD80B500AFFFF76BFF80BD000004
:103CA00080B400AF034B9B691846BD465DF8047BAA
:103CB000704700BFF00B002080B582B000AF786085
:103CC00079680820FFF7B0FE0837BD4680BD80B593
:103CD00084B000AF786039607868FFF7C0FFF860A3
:103CE000FB683A685A62F868FFF7ECFD1037BD468A
:103CF00080BD80B485B000AF78600B46FB70FB7868
:103D00007A6802339B0013445B685B69FB60FB6865
:103D10001A68FB68DA60FB681B68002B0AD17B68B5
:103D20005A6DFB785B01134403F511634FF40022D5
:103D30001A602DE0FB78002B06D1FB681B68402B36
:103D400002D9FB6840221A60FB681A68FB78796820
:103D500002339B000B445B681B8A13445A1EFB789A
:103D6000796802339B000B445B681B8AB2FBF3F358
:103D7000BB607B68596DFB78BA68D004FA6812683A
:103D8000024342F000525B010B4403F511631A60D9
:103D9000FB787A6802339B0013445B681B6803F06E
:103DA0000303012B28D17B685B6DD3F8083803F43B
:103DB0008073002B10D07B68596DFB787A68506D4A
:103DC000FA78483252010244126842F08052483375
:103DD0005B010B441A600FE07B68596DFB787A68D1
:103DE000506DFA78483252010244126842F0005293
:103DF00048335B010B441A607B68596DFB787A6825
:103E0000506DFA78483252010244126842F004427E
:103E100048335B010B441A607B685B6D7A68526DB6
:103E2000D2F83418FA78012000FA02F20A43C3F8F3
:103E300034281437BD465DF8047B704780B483B0E6
:103E400000AF78600B46FB707B68596DFB787A6831
:103E5000506DFA78583252010244126842F400124E
:103E600058335B010B441A600C37BD465DF8047B88
:103E7000704780B483B000AF78600B46FB707B68FE
:103E8000596DFB787A68506DFA78483252010244D5
:103E9000126842F4001248335B010B441A600C377D
:103EA000BD465DF8047B704780B483B000AF786096
:103EB0000B46FB707B68596DFB787A68506DFA7819
:103EC000583252010244126822F4001258335B0146
:103ED0000B441A600C37BD465DF8047B704780B414
:103EE00083B000AF78600B46FB707B68596DFB7840
:103EF0007A68506DFA78483252010244126822F40E
:103F0000001248335B010B441A600C37BD465DF864
:103F1000047B704780B483B000AF20237B607B6854
:103F200083F311880C37BD465DF8047B704780B47D
:103F300083B000AF00237B607B6883F311880C376C
:103F4000BD465DF8047B704780B500AFFFF7E2FF28
:103F500080BD80B500AFFFF7EAFF80BD80B500AF40
:103F6000FFF7F2FF80BD80B500AFFFF7F2FF80BD25
:103F700080B582B000AF78607868FFF753FA0837F1
:103F8000BD4680BD80B500AFFFF7E8FF80BD80B5BE
:103F900000AFFFF7E8FF80BD80B582B000AF78606A
:103FA000396039687868FEF7F4FD0837BD4680BD92
:103FB00080B582B000AF786039603B6803F00C03D5
:103FC000002B02D04448FFF7D3FF7B685B681B7867
:103FD000002B24D03B6803F01003002B0AD07B6831
:103FE0005B685B68002B74D07B685B685B68786893
:103FF00098476EE07B685B685B68002B69D07B68E4
:1040000004221A707B685B685B68786898477B68F5
:104010001B78042B5DD17B6803221A7059E07B6802
:104020005B6A1B687A68526A1268126822F01F0283
:104030001A607B685B6A1B681B6803F00103002B36
:10404000F7D17B685B6A5B687A68526A127A1146BC
:104050003D228A401A607B681B6A1B687A68126A74
:104060001268126822F01F021A607B681B6A1B68C4
:104070001B6803F00103002BF7D17B681B6A5B68A8
:104080007A68126A127A11463D228A401A607B6869
:104090005B685B68002B0FD07B6804221A707B681A
:1040A0005B685B68786898477B681B78042B06D14F
:1040B0007B6802221A7002E07B6802221A70FFF706
:1040C00061FF7B68083300211846FFF765FFFFF7A3
:1040D0005EFF0837BD4680BDC093000880B582B042
:1040E00000AF786039603B6803F00C03002B02D00E
:1040F0000248FFF73DFF0837BD4680BDC09300086A
:1041000080B500AF094803F040FE084B084ADA6169
:10411000064B084A1A62054B074A5A62034B074A84
:104120009A62024B064ADA6280BD00BF4409002051
:10413000003001400C8E0008308E00081600010689
:104140004600010680B584B000AF78607B681B78BC
:10415000012B2FD17B684B4A93421DD17B68186A93
:104160007B68494A0A2100F06DFE0346FB737B68B9
:10417000586A7B68454A0A2100F064FE0346FB73D7
:10418000434A434B5B6C43F480535364404A404B77
:104190005B6E43F4805353667B681B6A1B687A68C6
:1041A000D2690C329A607B685B6A1B687A68D26954
:1041B0000C329A607B685B681B8A03F40063002BF7
:1041C0000CD17B689B6A23F4F0427B689A627B681F
:1041D000DB6A23F4F0427B68DA620FE07B689B6A5B
:1041E00023F4F04343F420527B689A627B68DB6AD5
:1041F00023F4F04343F420527B68DA627B685B6807
:104200001B78002B0CD07B689B6A43F484727B681C
:104210009A627B68DB6A43F484727B68DA620BE043
:104220007B689B6A23F484727B689A627B68DB6A92
:1042300023F484727B68DA627B68DB697A68D2690E
:10424000126822F040021A607B68DB697A68526863
:10425000128A42F4417292B21A607B68DB697A6812
:104260005268528A42F0070292B25A607B68DB6958
:104270007A68D269126842F040021A601037BD466F
:1042800080BD00BF44090020B13F0008DD400008A8
:104290000038024080B485B000AFF860B9607A6041
:1042A000FB681B6A1B681C4ADA60FB681B6A1B6898
:1042B000BA685A60FB681B6A1B68FA68926A1A60DF
:1042C000FB685B6A1B687A68DA60FB685B6A1B687C
:1042D000BA685A60FB685B6A1B68FA68D26A42F483
:1042E00080621A60FB681B6A1B68FA68126A1268AF
:1042F000126842F001021A60FB685B6A1B68FA6888
:10430000526A1268126842F001021A601437BD4600
:104310005DF8047B704700BF7409002080B485B04D
:1043200000AFF860B9607A60FB681B6A1B687A6846
:10433000DA60FB681B6A1B68BA685A60FB681B6A14
:104340001B68FA68926A42F480621A60FB685B6AD2
:104350001B68134ADA60FB685B6A1B68BA685A60BC
:10436000FB685B6A1B68FA68D26A1A60FB681B6AA2
:104370001B68FA68126A1268126842F001021A6039
:10438000FB685B6A1B68FA68526A1268126842F03E
:1043900001021A601437BD465DF8047B704700BF08
:1043A0009C8E000880B483B000AF20237B607B68C4
:1043B00083F311880C37BD465DF8047B704780B4E9
:1043C00083B000AF00237B607B6883F311880C37D8
:1043D000BD465DF8047B704780B500AFFFF7E2FF94
:1043E00080BD80B500AFFFF7EAFF80BD80B500AFAC
:1043F000FFF7F2FF80BD80B500AFFFF7F2FF80BD91
:1044000080B500AFFFF7F2FF80BD80B500AFFFF7CA
:10441000F2FF80BD80B500AFFFF710F880BD80B51A
:1044200000AF4FF080431B6903F00203002B09D05B
:104430004FF0804300221A61FFF7E2FFFFF7EAFF27
:10444000FFF7E3FFFCF760FD80BD000080B500AF23
:104450001C4A1C4B1B6C43F001031364194A194B93
:104460001B6E43F001031366174A174B9B6843F01A
:10447000010393604FF0804342F2CF029A624FF003
:1044800080434FF0FF32DA624FF0804300229A619E
:104490004FF0804300225A634FF080430022DA60DD
:1044A0004FF0804300225A604FF0804301225A614E
:1044B0004FF0804301221A6008211C2002F09AFB71
:1044C00080BD00BF00380240002004E080B483B00B
:1044D00000AF20237B607B6883F311880C37BD46D7
:1044E0005DF8047B704780B483B000AF00237B602D
:1044F0007B6883F311880C37BD465DF8047B7047F9
:1045000080B500AFFFF7E2FF80BD80B500AFFFF7D9
:10451000EAFF80BD80B500AFFFF7F2FF80BD80B538
:1045200000AFFFF7F2FF80BD80B500AFFFF7F2FFED
:1045300080BD80B500AFFFF7F2FF80BD80B582B0CF
:1045400000AF7860396039687868FEF79BF9083702
:10455000BD4680BD80B584B000AF78600B467B80DF
:104560000023FB607B8803F00803002B03D0FB686B
:1045700043F08003FB607B8803F00103002B03D032
:10458000FB6843F02003FB607B8803F00203002BF1
:1045900003D0FB6843F04003FB607B8803F0040317
:1045A000002B03D0FB6843F48073FB607B6804330B
:1045B000F9681846FFF7C2FF1037BD4680BD80B5C9
:1045C00086B000AF78607B685B6F3B613B69DB68FE
:1045D000FB813B691B68FB82FB8A03F48073002B21
:1045E0000ED0FFF7A1FF7B6804334FF4007118462B
:1045F000FFF7A4FF3B696FF480721A60FFF799FF21
:10460000FFF792FF1EE0FB8A03F00F03002B04D09C
:10461000FB8A19467868FFF79DFF3B695B68DAB251
:104620007B6893F8783013407B73FB8A03F0200398
:10463000002B04D07B7B1946786802F08DFF3B6924
:104640001B68FB82FB8A03F02F03002BDBD1FFF7F3
:1046500070FFFB8903F08003002B22D0FB8A03F05C
:104660008003002B1DD0FFF75FFF7B6830331846B7
:1046700002F0F8FDB860BB68002B0DDA7B680433EC
:1046800008211846FFF75AFFFB8923F0C00343F0C7
:1046900040023B69DA6002E0BA683B695A60FFF7A2
:1046A00048FFFB8903F04003002B25D0FB8A03F071
:1046B0004003002B20D0FFF737FF7B685A6C7B68E4
:1046C0009B6C9A4205D17B689B6B002B01D0012328
:1046D00000E0002303F00103DBB2002B0AD07B686B
:1046E000043310211846FFF729FFFB8923F040020D
:1046F0003B69DA60FFF71DFF1837BD4680BD00003B
:1047000080B483B000AF7860054A054BDB6843F0A6
:104710008003D3600C37BD465DF8047B704700BF53
:104720000010014080B483B000AF7860054A054BAB
:10473000DB6843F08003D3600C37BD465DF8047B33
:10474000704700BF0044004080B500AF0248FFF74B
:1047500036FFFCF7D9FB80BD7809002080B500AF9B
:104760000248FFF72CFFFCF7CFFB80BDF4090020C7
:1047700080B500AF084A0021084802F0BFFE074B91
:10478000074A5A67074A0021074802F0B7FE064B5E
:10479000064A5A6780BD00BF01470008780900201B
:1047A0000010014025470008F409002000440040A3
:1047B00080B582B000AF78607868FEF733FE0837C6
:1047C000BD4680BD80B485B000AF0346FB800023AA
:1047D000FB60FB8803F00803002B03D0FB6843F069
:1047E0001003FB60FB8803F00103002B03D0FB6880
:1047F00043F00403FB60FB8803F00203002B03D0AB
:10480000FB6843F00803FB60FB8803F00403002B04
:1048100003D0FB6843F02003FB60FB8803F4807344
:10482000002B03D0FB6843F04003FB60FB68184695
:104830001437BD465DF8047B704780B485B000AF87
:1048400078607B685B68DB68002B03D14FF4807372
:10485000FB6002E04FF48873FB607B681B691B6898
:104860007A681832DA607B681B691B6801225A601B
:104870007B681B691B687A68D168FA680A431A600A
:104880007B681B691B687A6812691268126842F0BB
:1048900001021A601437BD465DF8047B704780B48E
:1048A00083B000AF78607B681B691B687A68126907
:1048B0001268126822F01F021A607B681B691B686D
:1048C0001B6803F00103002BF7D17B681B695B6851
:1048D0007A681269127A11463D228A401A607B6812
:1048E0005B691B687A6852691268126822F01F02BD
:1048F0001A607B685B691B681B6803F00103002B6F
:10490000F7D17B685B695B687A685269127A1146F5
:104910003D228A401A607B689B680022DA607B68CF
:104920009B6800221A617B689B6800225A610C37E1
:10493000BD465DF8047B704780B584B000AF7860F9
:104940007B689B68FB607868FFF7A9FF7B689B68C2
:10495000214A934204D07B689B68204A934208D145
:104960007B685B685B691E4AB2FBF3F2FB689A6086
:1049700007E07B685B685B691A4AB2FBF3F2FB688D
:104980009A60FB681B68FB685B68FB6800221A6022
:104990007B685B685B8B43F040039BB21A46FB6805
:1049A0001A617B685B689B8B43F0C1039BB21A461C
:1049B000FB685A6142F20C137B817B685B681A8B3F
:1049C0007B8913439BB21A46FB68DA607868FFF76D
:1049D00034FF1037BD4680BD001001400014014077
:1049E00000BD010580DE800280B582B000AF786036
:1049F00039603B6803F00C03002B02D02548FFF719
:104A0000D7FE7B689B78002B0ED17B685B68DB68E8
:104A1000002B3CD07B685B68DB687A68128B92B2B3
:104A200011467868984732E07B681B691B687A6892
:104A300012691268126822F01F021A607B681B69F3
:104A40001B681B6803F00103002BF7D17B681B690F
:104A50005B687A681269127A11463D228A401A60B0
:104A60007B6802229A707B685B689B68002B04D08D
:104A70007B685B689B68786898477B689B78022BAB
:104A800005D17B6800229A707868FFF7D6FE083758
:104A9000BD4680BDC093000880B582B000AF78608D
:104AA00039603B6803F00C03002B02D01A48FFF773
:104AB0007FFE7B685B691B687A68526912681268BE
:104AC00022F01F021A607B685B691B681B6803F099
:104AD0000103002BF7D17B685B695B687A685269D8
:104AE000127A11463D228A401A607B6802225A706F
:104AF0007B685B681B68002B04D07B685B681B6865
:104B0000786898477B685B78022B02D17B6800222B
:104B10005A700837BD4680BDC093000890B587B075
:104B200000AF78607B689B687B617B69DB683B6179
:104B30007B691B68FB817B695B68FA8940F20F1314
:104B40001340002B13D07B696FF480721A607B686E
:104B50005B681B69002B0AD07B685B681C69FB895A
:104B60001846FFF72FFE034619467868A047FB89D1
:104B700003F04003002B17D03B6903F04003002BE8
:104B800012D07B696FF040021A603B6923F040024B
:104B90007B69DA607B685B685B68002B04D07B68AC
:104BA0005B685B68786898471C37BD4690BD00001D
:104BB00080B582B000AF0C4B1B6803F03D037B60F7
:104BC000094A7B689360094B1B6C002B06D0074B8E
:104BD0001B6C064A526C796810469847FCF794F9AA
:104BE0000837BD4680BD00BF006402404C0800206D
:104BF00080B582B000AF0D4B1B689B0903F03D03ED
:104C00007B600A4A7B689B019360094B9B6C002B7D
:104C100006D0074B9B6C064AD26C796810469847C1
:104C2000FCF772F90837BD4680BD00BF0064024042
:104C30004C08002080B582B000AF0D4B1B681B0CE8
:104C400003F03D037B600A4A7B681B049360094BB9
:104C50001B6D002B06D0074B1B6D064A526D796801
:104C600010469847FCF750F90837BD4680BD00BF95
:104C7000006402404C08002080B582B000AF0D4BAC
:104C80001B689B0D03F03D037B600A4A7B689B0514
:104C90009360094B9B6D002B06D0074B9B6D064A1A
:104CA000D26D796810469847FCF72EF90837BD4653
:104CB00080BD00BF006402404C08002080B582B077
:104CC00000AF0C4B5B6803F03D037B60094A7B68D7
:104CD000D360094B1B6E002B06D0074B1B6E064A98
:104CE000526E796810469847FCF70EF90837BD46B2
:104CF00080BD00BF006402404C08002080B582B037
:104D000000AF0D4B5B689B0903F03D037B600A4AD3
:104D10007B689B01D360094B9B6E002B06D0074B31
:104D20009B6E064AD26E796810469847FCF7ECF8FD
:104D30000837BD4680BD00BF006402404C0800201B
:104D400080B582B000AF0D4B5B681B0C03F03D03D8
:104D50007B600A4A7B681B04D360094B1B6F002BE6
:104D600006D0074B1B6F064A526F7968104698476A
:104D7000FCF7CAF80837BD4680BD00BF006402409A
:104D80004C08002080B582B000AF0D4B5B689B0DD6
:104D900003F03D037B600A4A7B689B05D360094BA7
:104DA0009B6F002B06D0074B9B6F064AD26F79682A
:104DB00010469847FCF7A8F80837BD4680BD00BFED
:104DC000006402404C08002080B483B000AF184B50
:104DD00000221A6000237B6011E016497A681346AE
:104DE0005B0013449B000B441B6800221A60124AAC
:104DF0007B68002142F833107B6801337B607B685D
:104E00000F2BEAD90D4B4FF0FF329A600B4B4FF04E
:104E1000FF32DA600A4B4FF0FF329A60084B4FF0D6
:104E2000FF32DA600C37BD465DF8047B704700BF87
:104E300048080020AC8D00084C08002000600240AB
:104E40000064024080B584B000AFF860B9607A6059
:104E50003B60FB685B7A1A46012303FA02F2384B87
:104E60001B681340002B01D0012364E0FB685B7AD0
:104E70001946344A7B6842F83130FB685B7A314A24
:104E8000DB0013443A685A60FB685B7A1A460123D8
:104E900003FA02F22A4B1B681343294A1360284B7A
:104EA0001B68DBB2002B0BD0274A274B1B6B43F44C
:104EB00000131363244A244B1B6D43F40013136542
:104EC0001F4B1B6803F47F43002B0BD01E4A1E4B65
:104ED0001B6B43F4800313631B4A1B4B1B6D43F492
:104EE00080031365FB681B68FA681268126822F079
:104EF0001F021A60FB681B681B6803F00103002B8C
:104F0000F8D1FB685B68FA68127A11463D228A4044
:104F10001A60FB681B6800221A60FB681B6821226C
:104F20005A617B68002B05D0FB689B7AB9681846EC
:104F300001F060FE002318461037BD4680BD00BF5B
:104F4000480800204C0800200038024080B400AF20
:104F5000BD465DF8047B704780B483B000AF20236A
:104F60007B607B6883F311880C37BD465DF8047B5A
:104F7000704780B483B000AF00237B607B6883F30D
:104F800011880C37BD465DF8047B704780B500AFD3
:104F9000FFF7E2FF80BD80B500AFFFF7EAFF80BDFD
:104FA00080B500AFFFF7F2FF80BD80B500AFFFF71F
:104FB000F2FF80BD80B500AFFFF7F2FF80BD80B586
:104FC00000AFFFF7F2FF80BD80B582B000AF786020
:104FD0007868FEF74FFA0837BD4680BD80B584B0CB
:104FE00000AF78607B685B6DFB602020FFF7ECFF13
:104FF000FB6801221A61FB681B6903F00103002BA7
:10500000F9D11220FFF7E0FFFB681B69002BFBDAE8
:105010001037BD4680BD80B485B000AF78607B6836
:105020005B6DBB600023FB6032E0BA68FB6848330D
:105030005B01134400221A60BA68FB685B011344E9
:1050400003F5116300221A60BA68FB685B01134420
:1050500003F608134FF0FF321A60BA68FB68583342
:105060005B01134400221A60BA68FB685B011344B9
:1050700003F5316300221A60BA68FB685B011344D0
:1050800003F608334FF0FF321A60FB680133FB6010
:105090007B689B6D9A68FB689A42C6D2BB684FF0EA
:1050A0000112C3F81C281437BD465DF8047B704715
:1050B00080B584B000AF78607B685B6DFB60FB6897
:1050C00010221A61FB681B6903F01003002BF9D151
:1050D0001220FFF779FF1037BD4680BD80B584B040
:1050E00000AF786039607B685B6DFB603B689B015B
:1050F00043F02002FB681A61FB681B6903F0200380
:10510000002BF9D11220FFF75FFF1037BD4680BD9D
:1051100080B483B000AF78607B689B6D1A687B6851
:10512000DA650C37BD465DF8047B704780B485B006
:1051300000AF786039607B68DB6DFB607B68DA6D9F
:105140003B681A447B68DA65FB6818461437BD462D
:105150005DF8047B704780B485B000AFF860B9603B
:105160007A60BB681A68FB681A607B68042B06D9F2
:105170007B68043B7B60BB680433BB60F1E714379A
:10518000BD465DF8047B704780B487B000AFF8601F
:10519000B9607A603B6000237B6100233B6117E0CC
:1051A0003B6903F00303002B02D1FB681B687B61A2
:1051B0003A693B689A4208D2BB685A1CBA607A695D
:1051C000D2B21A707B691B0A7B613B6901333B6178
:1051D0003A697B689A42E3D31C37BD465DF8047B8D
:1051E000704790B587B000AF78607B685B6D1B6AD5
:1051F0007B617B691B09C3F30A033B617B6903F095
:105200000F03FB607B6903F4F013B3F5C02F64D088
:10521000B3F5C02F06D8B3F5003F5ED0B3F5802FAD
:1052200016D05AE0B3F5002F57D0B3F5402F54D124
:105230007B685B6D03F580507A68FB6802339B00E6
:1052400013445B68196A08233A69FFF79DFF44E03D
:105250007B685B6D03F580507A68FB6802339B00C6
:1052600013445B689B699C687A68FB6802339B0007
:1052700013445B689B691A687968FB6802339B007A
:105280000B445B689B695B68D31A3A692146FFF758
:105290007BFF7A68FB6802339B0013445B689A6962
:1052A0007968FB6802339B000B445B689B699968D3
:1052B0003B690B4493607A68FB6802339B0013449C
:1052C0005B689A697968FB6802339B000B445B68F2
:1052D0009B6959683B690B4453601C37BD4690BDC0
:1052E00080B584B000AF78600B46FB70FB787A68BD
:1052F00002339B0013445B685B695A68FB787968EA
:1053000002339B000B445B685B691B689A420FD3B6
:105310007B685B6D7A68526DD2F83418FA78012098
:1053200000FA02F2D2430A40C3F8342801236AE0AB
:10533000FB787A6802339B0013445B685B691A68E8
:10534000FB78796802339B000B445B685B695B68A0
:10535000D31AFB60FB787A6802339B0013445B68C6
:105360001B8A1A46FB689A4207D2FB787A68023396
:105370009B0013445B681B8AFB607B685A6DFB785B
:105380005B01134403F618131B689BB29A00FB6879
:105390009A4201D2002336E07B685A6DFB780133D4
:1053A0001B03D018FB787A6802339B0013445B68B8
:1053B0005B699B68FA681946FFF7CDFEFB787A684F
:1053C00002339B0013445B685A69FB7879680233A7
:1053D0009B000B445B685B699968FB680B449360B6
:1053E000FB787A6802339B0013445B685A69FB7848
:1053F000796802339B000B445B685B695968FB6802
:105400000B44536072E718461037BD4680BD80B527
:1054100086B000AF78600B46FB707B685B6D7B618C
:10542000FB787A695B01134403F608131B683B6140
:10543000FB787A695B01134403F608133A691A6032
:105440003B6903F00103002B4BD07B69D3F8103884
:1054500003F00103002B44D0FB787A6802339B00F1
:1054600013445B685B69FB60FB681A68FB68DB6878
:105470009A4213D2FB68DA68FB681B68D21AFB6891
:105480001A60FB6800225A60FFF794FDFB7819460A
:105490007868FEF72EFCFFF792FD22E07B681B89FF
:1054A0001AB2FB78012101FA03F31BB2DB431BB2F2
:1054B00013401BB29AB27B681A81FB787A68023378
:1054C0009B0013445B689B68002B0AD0FB787A68CA
:1054D00002339B0013445B689B68FA781146786836
:1054E00098473B6903F08003002B0ED07B69D3F80B
:1054F0003428FB78012101FA03F31340002B04D078
:10550000FB7819467868FFF7EBFE1837BD4680BD7B
:1055100080B586B000AF78600B46FB707B685B6D32
:105520007B61FB787A695B01134403F608331B68DF
:105530003B61FB787A695B01134403F608333A69EF
:105540001A603B6903F00803002B11D07B69D3F884
:10555000143803F00803002B0AD0FB787A68023372
:105560009B0013445B685B68FA781146786898473B
:105570003B6903F00103002B5ED07B69D3F814383C
:1055800003F00103002B57D0FB787A6802339B00AD
:1055900013445B689B69FB60FB78002B29D1FB6897
:1055A0005A68FB78796802339B000B445B685B8A1E
:1055B000B2FBF3F103FB01F3D31A002B19D1FB6803
:1055C0001A68FB68DB689A4213D2FB68DA68FB68EA
:1055D0001B68D21AFB681A60FB6800225A60FFF74A
:1055E000E9FCFB781946786800F079FCFFF7E7FCE6
:1055F00022E07B685B891AB2FB78012101FA03F390
:105600001BB2DB431BB213401BB29AB27B685A81B8
:10561000FB787A6802339B0013445B68DB68002BDD
:105620000AD0FB787A6802339B0013445B68DB681E
:10563000FA781146786898471837BD4680BD80B51E
:1056400084B000AF78607B685B6DBB600023FB7348
:1056500058E0FB7BBA6848335B0113441B6803F4D2
:105660004023B3F5802F4AD1FB7BBA6848335B01F6
:1056700013441B68002B42DAFB7BFA7BB968483283
:1056800052010A44126842F09042B96848335B0103
:105690000B441A60FB7BBA6848335B0113441B68F8
:1056A000002BF7DBFB7B19467868FFF717FD7B685B
:1056B0001B891AB2FB7B012101FA03F31BB2DB4306
:1056C0001BB213401BB29AB27B681A81FB7B7A68CB
:1056D00002339B0013445B689B68002B0AD0FB7B62
:1056E0007A6802339B0013445B689B68FA7B11461F
:1056F00078689847FB7B19467868FFF7F1FDFB7BDC
:105700000133FB73FA7B7B689B6D9B689A42A0D93F
:105710001037BD4680BD80B584B000AF78607B682F
:105720005B6DBB600023FB7338E0FB7BBA685833CA
:105730005B0113441B6803F44023B3F5802F2AD187
:10574000FB7BBA6858335B0113441B68002B22DAD9
:105750007B685B891AB2FB7B012101FA03F31BB260
:10576000DB431BB213401BB29AB27B685A81FB7BAE
:105770007A6802339B0013445B68DB68002B0AD015
:10578000FB7B7A6802339B0013445B68DB68FA7B1F
:10579000114678689847FB7B0133FB73FA7B7B6883
:1057A0009B6D9B689A42C0D91037BD4680BD80B5BD
:1057B00086B000AF78607B685B6D7B617B695B69FD
:1057C0003B617B699B693A6913403B617B693A693C
:1057D0005A613B6903F48053002B03D0786800F0D2
:1057E000DCFFBEE03B69002B19DA7B69D3F8003E91
:1057F00003F00303002B07D07B69D3F8003E23F0AE
:1058000003027B69C3F8002E7B69D3F8043823F0C8
:1058100001027B69C3F80428786801F016F83B6937
:1058200003F40063002B02D0786800F0F4FF3B69BA
:1058300003F40053002B17D07B69D3F8083803F02A
:105840000603002B08D17B69DB6823F4705343F413
:1058500010527B69DA6007E07B69DB6823F47053E0
:1058600043F4A0527B69DA603B6903F00803002B24
:1058700009D07B685B68DB68002B04D07B685B68C1
:10588000DB68786898473B6903F48013002B02D0EB
:105890007868FFF7D4FE3B6903F40013002B02D0B5
:1058A0007868FFF738FF3B6903F01003002B02D044
:1058B0007868FFF796FC7B69D3F81838FB603B6982
:1058C00003F40023002B23D0FB6803F48033002B68
:1058D00003D000217868FFF71BFEFB6803F4003358
:1058E000002B03D001217868FFF712FEFB6803F458
:1058F0008023002B03D002217868FFF709FEFB68A4
:1059000003F40023002B03D003217868FFF700FE87
:105910003B6903F48023002B23D0FB6803F00103D1
:10592000002B03D000217868FFF771FDFB6803F0BE
:105930000203002B03D001217868FFF768FDFB68A4
:1059400003F00403002B03D002217868FFF75FFD0A
:10595000FB6803F00803002B03D003217868FFF7EE
:1059600056FD1837BD4680BD80B500AF0248FFF731
:105970001EFFFBF7C9FA80BDCC08002080B500AF40
:10598000054800F00EFE044B4FF0A0425A65024B52
:10599000024A9A6580BD00BFCC080020908E0008A6
:1059A00080B584B000AF78607B685B6DFB607B681E
:1059B0001B78012B59D17B682D4A93421FD12D4A68
:1059C0002C4B5B6B43F0800353632A4A294B5B6D7E
:1059D00043F080035365274A264B5B6943F08003FD
:1059E0005361244B00225A610E21432001F002F939
:1059F000FB68214ADA60FB68204AC3F80028FB688C
:105A00000022C3F8002EFB68C0221A60FB684FF426
:105A100050229A637868FFF7E1FAFB6800229A60E7
:105A20007868FFF7F8FAFB680022C3F81028FB68D3
:105A30000022C3F81428FB680022C3F81C287B68E6
:105A40005B68DB68002B03D1FB680D4A9A6102E0BA
:105A5000FB680C4A9A61FB684FF0FF325A61FB68A1
:105A60009B6843F00102FB689A601037BD4680BD19
:105A7000CC080020003802404014004003002002FF
:105A8000003C30C0083C30C090B585B000AF7860B5
:105A90007B685B6DBB6000217868FFF71FFBBB680C
:105AA0000022C3F83428BB684FF00112C3F81C2849
:105AB0000023FB6024E0BA68FB6848335B011344B1
:105AC0004FF000621A60BA68FB6858335B011344F8
:105AD0004FF000621A60BA68FB685B01134403F67A
